{
  "contractName": "ChainOfCustody",
  "abi": [
    {
      "constant": true,
      "inputs": [],
      "name": "nextEvidenceId",
      "outputs": [
        {
          "name": "",
          "type": "uint256"
        }
      ],
      "payable": false,
      "stateMutability": "view",
      "type": "function"
    },
    {
      "constant": true,
      "inputs": [
        {
          "name": "",
          "type": "uint256"
        }
      ],
      "name": "evidences",
      "outputs": [
        {
          "name": "id",
          "type": "uint256"
        },
        {
          "name": "description",
          "type": "string"
        },
        {
          "name": "currentCustodian",
          "type": "address"
        },
        {
          "name": "custodyRecordCount",
          "type": "uint256"
        }
      ],
      "payable": false,
      "stateMutability": "view",
      "type": "function"
    },
    {
      "anonymous": false,
      "inputs": [
        {
          "indexed": true,
          "name": "evidenceId",
          "type": "uint256"
        },
        {
          "indexed": true,
          "name": "from",
          "type": "address"
        },
        {
          "indexed": true,
          "name": "to",
          "type": "address"
        },
        {
          "indexed": false,
          "name": "timestamp",
          "type": "uint256"
        }
      ],
      "name": "CustodyTransferred",
      "type": "event"
    },
    {
      "anonymous": false,
      "inputs": [
        {
          "indexed": true,
          "name": "evidenceId",
          "type": "uint256"
        },
        {
          "indexed": false,
          "name": "description",
          "type": "string"
        },
        {
          "indexed": false,
          "name": "initialCustodian",
          "type": "address"
        }
      ],
      "name": "EvidenceInitialized",
      "type": "event"
    },
    {
      "anonymous": false,
      "inputs": [
        {
          "indexed": true,
          "name": "evidenceId",
          "type": "uint256"
        },
        {
          "indexed": false,
          "name": "newDescription",
          "type": "string"
        }
      ],
      "name": "EvidenceDescriptionUpdated",
      "type": "event"
    },
    {
      "constant": false,
      "inputs": [
        {
          "name": "_description",
          "type": "string"
        },
        {
          "name": "_initialCustodian",
          "type": "address"
        }
      ],
      "name": "initializeEvidence",
      "outputs": [
        {
          "name": "",
          "type": "uint256"
        }
      ],
      "payable": false,
      "stateMutability": "nonpayable",
      "type": "function"
    },
    {
      "constant": false,
      "inputs": [
        {
          "name": "_evidenceId",
          "type": "uint256"
        },
        {
          "name": "_newCustodian",
          "type": "address"
        }
      ],
      "name": "transferCustody",
      "outputs": [],
      "payable": false,
      "stateMutability": "nonpayable",
      "type": "function"
    },
    {
      "constant": false,
      "inputs": [
        {
          "name": "_evidenceId",
          "type": "uint256"
        },
        {
          "name": "_newDescription",
          "type": "string"
        }
      ],
      "name": "updateDescription",
      "outputs": [],
      "payable": false,
      "stateMutability": "nonpayable",
      "type": "function"
    },
    {
      "constant": true,
      "inputs": [
        {
          "name": "_evidenceId",
          "type": "uint256"
        }
      ],
      "name": "getCurrentCustodian",
      "outputs": [
        {
          "name": "",
          "type": "address"
        }
      ],
      "payable": false,
      "stateMutability": "view",
      "type": "function"
    },
    {
      "constant": true,
      "inputs": [
        {
          "name": "_evidenceId",
          "type": "uint256"
        }
      ],
      "name": "getCustodyHistory",
      "outputs": [
        {
          "components": [
            {
              "name": "custodian",
              "type": "address"
            },
            {
              "name": "timestamp",
              "type": "uint256"
            }
          ],
          "name": "",
          "type": "tuple[]"
        }
      ],
      "payable": false,
      "stateMutability": "view",
      "type": "function"
    },
    {
      "constant": true,
      "inputs": [
        {
          "name": "_evidenceId",
          "type": "uint256"
        }
      ],
      "name": "getEvidenceDetails",
      "outputs": [
        {
          "name": "",
          "type": "uint256"
        },
        {
          "name": "",
          "type": "string"
        },
        {
          "name": "",
          "type": "address"
        },
        {
          "components": [
            {
              "name": "custodian",
              "type": "address"
            },
            {
              "name": "timestamp",
              "type": "uint256"
            }
          ],
          "name": "",
          "type": "tuple[]"
        }
      ],
      "payable": false,
      "stateMutability": "view",
      "type": "function"
    },
    {
      "constant": true,
      "inputs": [],
      "name": "getAllEvidenceDetails",
      "outputs": [
        {
          "name": "",
          "type": "uint256[]"
        },
        {
          "name": "",
          "type": "string[]"
        },
        {
          "name": "",
          "type": "address[]"
        }
      ],
      "payable": false,
      "stateMutability": "view",
      "type": "function"
    }
  ],
  "bytecode": "0x608060405234801561001057600080fd5b506117ce806100206000396000f3fe608060405260043610610093576000357c01000000000000000000000000000000000000000000000000000000009004806305d5f5151461009857806314dee4b3146100d557806329caec32146100fe5780632e4546cd14610129578063815fc9bb14610169578063bf169de714610192578063cf816d60146101cf578063d12760051461020f578063d75af31e1461023c575b600080fd5b3480156100a457600080fd5b506100bf60048036036100ba919081019061108c565b610279565b6040516100cc9190611411565b60405180910390f35b3480156100e157600080fd5b506100fc60048036036100f791908101906110f1565b610300565b005b34801561010a57600080fd5b50610113610453565b604051610120919061152c565b60405180910390f35b34801561013557600080fd5b50610150600480360361014b919081019061108c565b610459565b604051610160949392919061159a565b60405180910390f35b34801561017557600080fd5b50610190600480360361018b91908101906110b5565b610541565b005b34801561019e57600080fd5b506101b960048036036101b49190810190611038565b6107bc565b6040516101c6919061152c565b60405180910390f35b3480156101db57600080fd5b506101f660048036036101f1919081019061108c565b610943565b6040516102069493929190611547565b60405180910390f35b34801561021b57600080fd5b50610224610a8c565b6040516102339392919061144e565b60405180910390f35b34801561024857600080fd5b50610263600480360361025e919081019061108c565b610ce1565b604051610270919061142c565b60405180910390f35b600081600154811015156102c2576040517f08c379a00000000000000000000000000000000000000000000000000000000081526004016102b99061150c565b60405180910390fd5b60008084815260200190815260200160002060020160009054906101000a900473ffffffffffffffffffffffffffffffffffffffff16915050919050565b8160015481101515610347576040517f08c379a000000000000000000000000000000000000000000000000000000000815260040161033e9061150c565b60405180910390fd5b60008084815260200190815260200160002060020160009054906101000a900473ffffffffffffffffffffffffffffffffffffffff1673ffffffffffffffffffffffffffffffffffffffff163373ffffffffffffffffffffffffffffffffffffffff161415156103ec576040517f08c379a00000000000000000000000000000000000000000000000000000000081526004016103e3906114ec565b60405180910390fd5b816000808581526020019081526020016000206001019080519060200190610415929190610e65565b50827fb990814ab13231bf2d1826edcdc4479177cc20d69c3589e1acff8789ede6ee4b83604051610446919061149a565b60405180910390a2505050565b60015481565b6000602052806000526040600020600091509050806000015490806001018054600181600116156101000203166002900480601f01602080910402602001604051908101604052809291908181526020018280546001816001161561010002031660029004801561050b5780601f106104e05761010080835404028352916020019161050b565b820191906000526020600020905b8154815290600101906020018083116104ee57829003601f168201915b5050505050908060020160009054906101000a900473ffffffffffffffffffffffffffffffffffffffff16908060030154905084565b8160015481101515610588576040517f08c379a000000000000000000000000000000000000000000000000000000000815260040161057f9061150c565b60405180910390fd5b60008084815260200190815260200160002060020160009054906101000a900473ffffffffffffffffffffffffffffffffffffffff1673ffffffffffffffffffffffffffffffffffffffff163373ffffffffffffffffffffffffffffffffffffffff1614151561062d576040517f08c379a0000000000000000000000000000000000000000000000000000000008152600401610624906114ec565b60405180910390fd5b6000806000858152602001908152602001600020905060408051908101604052808260020160009054906101000a900473ffffffffffffffffffffffffffffffffffffffff1673ffffffffffffffffffffffffffffffffffffffff1681526020014281525081600401600083600301600081548092919060010191905055815260200190815260200160002060008201518160000160006101000a81548173ffffffffffffffffffffffffffffffffffffffff021916908373ffffffffffffffffffffffffffffffffffffffff16021790555060208201518160010155905050828160020160006101000a81548173ffffffffffffffffffffffffffffffffffffffff021916908373ffffffffffffffffffffffffffffffffffffffff1602179055508273ffffffffffffffffffffffffffffffffffffffff163373ffffffffffffffffffffffffffffffffffffffff16857f55f940726e9a2689d79bf3c29305c07b4df0134b15e5e06e78894b2d2fea3236426040516107ae919061152c565b60405180910390a450505050565b600080600160008154809291906001019190505590506080604051908101604052808281526020018581526020018473ffffffffffffffffffffffffffffffffffffffff1681526020016000815250600080838152602001908152602001600020600082015181600001556020820151816001019080519060200190610843929190610ee5565b5060408201518160020160006101000a81548173ffffffffffffffffffffffffffffffffffffffff021916908373ffffffffffffffffffffffffffffffffffffffff16021790555060608201518160030155905050807f7d6f207530627f1b5c2e8721ba058d8ae1637a7bf39aa1935abd08ad4505868785856040516108ca9291906114bc565b60405180910390a28273ffffffffffffffffffffffffffffffffffffffff16600073ffffffffffffffffffffffffffffffffffffffff16827f55f940726e9a2689d79bf3c29305c07b4df0134b15e5e06e78894b2d2fea323642604051610931919061152c565b60405180910390a48091505092915050565b60006060600060608460015481101515610992576040517f08c379a00000000000000000000000000000000000000000000000000000000081526004016109899061150c565b60405180910390fd5b600080600088815260200190815260200160002090508060000154816001018260020160009054906101000a900473ffffffffffffffffffffffffffffffffffffffff166109df8a610ce1565b828054600181600116156101000203166002900480601f016020809104026020016040519081016040528092919081815260200182805460018160011615610100020316600290048015610a745780601f10610a4957610100808354040283529160200191610a74565b820191906000526020600020905b815481529060010190602001808311610a5757829003601f168201915b50505050509250955095509550955050509193509193565b606080606080600154604051908082528060200260200182016040528015610ac35781602001602082028038833980820191505090505b5090506060600154604051908082528060200260200182016040528015610afe57816020015b6060815260200190600190039081610ae95790505b5090506060600154604051908082528060200260200182016040528015610b345781602001602082028038833980820191505090505b50905060008090505b600154811015610ccf57600080828152602001908152602001600020600001548482815181101515610b6b57fe5b90602001906020020181815250506000808281526020019081526020016000206001018054600181600116156101000203166002900480601f016020809104026020016040519081016040528092919081815260200182805460018160011615610100020316600290048015610c225780601f10610bf757610100808354040283529160200191610c22565b820191906000526020600020905b815481529060010190602001808311610c0557829003601f168201915b50505050508382815181101515610c3557fe5b9060200190602002018190525060008082815260200190815260200160002060020160009054906101000a900473ffffffffffffffffffffffffffffffffffffffff168282815181101515610c8657fe5b9060200190602002019073ffffffffffffffffffffffffffffffffffffffff16908173ffffffffffffffffffffffffffffffffffffffff16815250508080600101915050610b3d565b50828282955095509550505050909192565b60608160015481101515610d2a576040517f08c379a0000000000000000000000000000000000000000000000000000000008152600401610d219061150c565b60405180910390fd5b606060008085815260200190815260200160002060030154604051908082528060200260200182016040528015610d7b57816020015b610d68610f65565b815260200190600190039081610d605790505b50905060008090505b60008086815260200190815260200160002060030154811015610e5a5760008086815260200190815260200160002060040160008281526020019081526020016000206040805190810160405290816000820160009054906101000a900473ffffffffffffffffffffffffffffffffffffffff1673ffffffffffffffffffffffffffffffffffffffff1673ffffffffffffffffffffffffffffffffffffffff1681526020016001820154815250508282815181101515610e4057fe5b906020019060200201819052508080600101915050610d84565b508092505050919050565b828054600181600116156101000203166002900490600052602060002090601f016020900481019282601f10610ea657805160ff1916838001178555610ed4565b82800160010185558215610ed4579182015b82811115610ed3578251825591602001919060010190610eb8565b5b509050610ee19190610f95565b5090565b828054600181600116156101000203166002900490600052602060002090601f016020900481019282601f10610f2657805160ff1916838001178555610f54565b82800160010185558215610f54579182015b82811115610f53578251825591602001919060010190610f38565b5b509050610f619190610f95565b5090565b6040805190810160405280600073ffffffffffffffffffffffffffffffffffffffff168152602001600081525090565b610fb791905b80821115610fb3576000816000905550600101610f9b565b5090565b90565b6000610fc68235611725565b905092915050565b600082601f8301121515610fe157600080fd5b8135610ff4610fef82611613565b6115e6565b9150808252602083016020830185838301111561101057600080fd5b61101b838284611741565b50505092915050565b60006110308235611737565b905092915050565b6000806040838503121561104b57600080fd5b600083013567ffffffffffffffff81111561106557600080fd5b61107185828601610fce565b925050602061108285828601610fba565b9150509250929050565b60006020828403121561109e57600080fd5b60006110ac84828501611024565b91505092915050565b600080604083850312156110c857600080fd5b60006110d685828601611024565b92505060206110e785828601610fba565b9150509250929050565b6000806040838503121561110457600080fd5b600061111285828601611024565b925050602083013567ffffffffffffffff81111561112f57600080fd5b61113b85828601610fce565b9150509250929050565b61114e816116e9565b82525050565b600061115f82611673565b8084526020840193506111718361163f565b60005b828110156111a357611187868351611145565b611190826116b5565b9150602086019550600181019050611174565b50849250505092915050565b60006111ba8261167e565b808452602084019350836020820285016111d38561164c565b60005b8481101561120c5783830388526111ee838351611309565b92506111f9826116c2565b91506020880197506001810190506111d6565b508196508694505050505092915050565b600061122882611689565b80845260208401935061123a83611659565b60005b8281101561126c576112508683516113d3565b611259826116cf565b915060408601955060018101905061123d565b50849250505092915050565b600061128382611694565b80845260208401935061129583611666565b60005b828110156112c7576112ab868351611402565b6112b4826116dc565b9150602086019550600181019050611298565b50849250505092915050565b60006112de826116aa565b8084526112f2816020860160208601611750565b6112fb81611783565b602085010191505092915050565b60006113148261169f565b808452611328816020860160208601611750565b61133181611783565b602085010191505092915050565b6000603382527f4f6e6c79207468652063757272656e7420637573746f6469616e2063616e207060208301527f6572666f726d207468697320616374696f6e2e000000000000000000000000006040830152606082019050919050565b6000601882527f45766964656e636520646f6573206e6f742065786973742e00000000000000006020830152604082019050919050565b6040820160008201516113e96000850182611145565b5060208201516113fc6020850182611402565b50505050565b61140b8161171b565b82525050565b60006020820190506114266000830184611145565b92915050565b60006020820190508181036000830152611446818461121d565b905092915050565b600060608201905081810360008301526114688186611278565b9050818103602083015261147c81856111af565b905081810360408301526114908184611154565b9050949350505050565b600060208201905081810360008301526114b481846112d3565b905092915050565b600060408201905081810360008301526114d681856112d3565b90506114e56020830184611145565b9392505050565b600060208201905081810360008301526115058161133f565b9050919050565b600060208201905081810360008301526115258161139c565b9050919050565b60006020820190506115416000830184611402565b92915050565b600060808201905061155c6000830187611402565b818103602083015261156e81866112d3565b905061157d6040830185611145565b818103606083015261158f818461121d565b905095945050505050565b60006080820190506115af6000830187611402565b81810360208301526115c18186611309565b90506115d06040830185611145565b6115dd6060830184611402565b95945050505050565b6000604051905081810181811067ffffffffffffffff8211171561160957600080fd5b8060405250919050565b600067ffffffffffffffff82111561162a57600080fd5b601f19601f8301169050602081019050919050565b6000602082019050919050565b6000602082019050919050565b6000602082019050919050565b6000602082019050919050565b600081519050919050565b600081519050919050565b600081519050919050565b600081519050919050565b600081519050919050565b600081519050919050565b6000602082019050919050565b6000602082019050919050565b6000602082019050919050565b6000602082019050919050565b60006116f4826116fb565b9050919050565b600073ffffffffffffffffffffffffffffffffffffffff82169050919050565b6000819050919050565b6000611730826116fb565b9050919050565b6000819050919050565b82818337600083830152505050565b60005b8381101561176e578082015181840152602081019050611753565b8381111561177d576000848401525b50505050565b6000601f19601f830116905091905056fea265627a7a72305820c4a99c0ea51c618badf5f8ed022460aef04482edef2096791d40d8c4241e3a0d6c6578706572696d656e74616cf50037",
  "source": "// SPDX-License-Identifier: MIT\npragma solidity >=0.4.22 <0.9.0;\n\npragma experimental ABIEncoderV2;\n\ncontract ChainOfCustody {\n    struct Evidence {\n        uint256 id;\n        string description;\n        address currentCustodian;\n        uint256 custodyRecordCount;\n        mapping(uint256 => CustodyRecord) custodyRecords;\n    }\n\n    struct CustodyRecord {\n        address custodian;\n        uint256 timestamp;\n    }\n\n    mapping(uint256 => Evidence) public evidences;\n    uint256 public nextEvidenceId;\n\n    event CustodyTransferred(uint256 indexed evidenceId, address indexed from, address indexed to, uint256 timestamp);\n    event EvidenceInitialized(uint256 indexed evidenceId, string description, address initialCustodian);\n    event EvidenceDescriptionUpdated(uint256 indexed evidenceId, string newDescription);\n\n    modifier evidenceExists(uint256 _evidenceId) {\n        require(_evidenceId < nextEvidenceId, \"Evidence does not exist.\");\n        _;\n    }\n\n    function initializeEvidence(string memory _description, address _initialCustodian) public returns (uint256) {\n        uint256 evidenceId = nextEvidenceId++;\n        evidences[evidenceId] = Evidence(evidenceId, _description, _initialCustodian, 0);\n        emit EvidenceInitialized(evidenceId, _description, _initialCustodian);\n        emit CustodyTransferred(evidenceId, address(0), _initialCustodian, block.timestamp);\n        return evidenceId;\n    }\n\n    function transferCustody(uint256 _evidenceId, address _newCustodian) public evidenceExists(_evidenceId) {\n        require(msg.sender == evidences[_evidenceId].currentCustodian, \"Only the current custodian can perform this action.\");\n\n        Evidence storage evidence = evidences[_evidenceId];\n\n        // Add current custodian to custody records\n        evidence.custodyRecords[evidence.custodyRecordCount++] = CustodyRecord({\n            custodian: evidence.currentCustodian,\n            timestamp: block.timestamp\n        });\n\n        // Update current custodian\n        evidence.currentCustodian = _newCustodian;\n\n        // Emit the event with the current timestamp\n        emit CustodyTransferred(_evidenceId, msg.sender, _newCustodian, block.timestamp);\n    }\n\n    function updateDescription(uint256 _evidenceId, string memory _newDescription) public evidenceExists(_evidenceId) {\n        require(msg.sender == evidences[_evidenceId].currentCustodian, \"Only the current custodian can perform this action.\");\n        evidences[_evidenceId].description = _newDescription;\n        emit EvidenceDescriptionUpdated(_evidenceId, _newDescription);\n    }\n\n    function getCurrentCustodian(uint256 _evidenceId) public view evidenceExists(_evidenceId) returns (address) {\n        return evidences[_evidenceId].currentCustodian;\n    }\n\n    function getCustodyHistory(uint256 _evidenceId) public view evidenceExists(_evidenceId) returns (CustodyRecord[] memory) {\n        CustodyRecord[] memory history = new CustodyRecord[](evidences[_evidenceId].custodyRecordCount);\n        for (uint256 i = 0; i < evidences[_evidenceId].custodyRecordCount; i++) {\n            history[i] = evidences[_evidenceId].custodyRecords[i];\n        }\n        return history;\n    }\n\n    function getEvidenceDetails(uint256 _evidenceId) public view evidenceExists(_evidenceId) returns (uint256, string memory, address, CustodyRecord[] memory) {\n        Evidence storage evidence = evidences[_evidenceId];\n        return (evidence.id, evidence.description, evidence.currentCustodian, getCustodyHistory(_evidenceId));\n    }\n\n    function getAllEvidenceDetails() public view returns (uint256[] memory, string[] memory, address[] memory) {\n        uint256[] memory ids = new uint256[](nextEvidenceId);\n        string[] memory descriptions = new string[](nextEvidenceId);\n        address[] memory currentCustodians = new address[](nextEvidenceId);\n\n        for (uint256 i = 0; i < nextEvidenceId; i++) {\n            ids[i] = evidences[i].id;\n            descriptions[i] = evidences[i].description;\n            currentCustodians[i] = evidences[i].currentCustodian;\n        }\n\n        return (ids, descriptions, currentCustodians);\n    }\n}\n",
  "sourcePath": "/home/pete/Projects/blockchain/react-python/folder-one/project_five/contracts/ChainOfCustody.sol",
  "compiler": {
    "name": "solc",
    "version": "0.5.1+commit.c8a2cb62.Emscripten.clang"
  },
  "schemaVersion": "3.4.16",
  "updatedAt": "2024-07-06T12:57:26.987Z",
  "devdoc": {
    "methods": {}
  },
  "userdoc": {
    "methods": {}
  }
}