{
  "contractName": "ChainOfCustody",
  "abi": [
    {
      "constant": true,
      "inputs": [],
      "name": "nextEvidenceId",
      "outputs": [
        {
          "name": "",
          "type": "uint256"
        }
      ],
      "payable": false,
      "stateMutability": "view",
      "type": "function"
    },
    {
      "constant": true,
      "inputs": [
        {
          "name": "",
          "type": "uint256"
        }
      ],
      "name": "evidences",
      "outputs": [
        {
          "name": "id",
          "type": "uint256"
        },
        {
          "name": "description",
          "type": "string"
        },
        {
          "name": "currentCustodian",
          "type": "address"
        },
        {
          "name": "custodyRecordCount",
          "type": "uint256"
        }
      ],
      "payable": false,
      "stateMutability": "view",
      "type": "function"
    },
    {
      "constant": true,
      "inputs": [
        {
          "name": "",
          "type": "address"
        }
      ],
      "name": "custodians",
      "outputs": [
        {
          "name": "addr",
          "type": "address"
        },
        {
          "name": "name",
          "type": "string"
        },
        {
          "name": "isActive",
          "type": "bool"
        }
      ],
      "payable": false,
      "stateMutability": "view",
      "type": "function"
    },
    {
      "anonymous": false,
      "inputs": [
        {
          "indexed": true,
          "name": "evidenceId",
          "type": "uint256"
        },
        {
          "indexed": true,
          "name": "from",
          "type": "address"
        },
        {
          "indexed": true,
          "name": "to",
          "type": "address"
        },
        {
          "indexed": false,
          "name": "timestamp",
          "type": "uint256"
        }
      ],
      "name": "CustodyTransferred",
      "type": "event"
    },
    {
      "anonymous": false,
      "inputs": [
        {
          "indexed": true,
          "name": "evidenceId",
          "type": "uint256"
        },
        {
          "indexed": false,
          "name": "description",
          "type": "string"
        },
        {
          "indexed": false,
          "name": "initialCustodian",
          "type": "address"
        }
      ],
      "name": "EvidenceInitialized",
      "type": "event"
    },
    {
      "anonymous": false,
      "inputs": [
        {
          "indexed": true,
          "name": "evidenceId",
          "type": "uint256"
        },
        {
          "indexed": false,
          "name": "newDescription",
          "type": "string"
        }
      ],
      "name": "EvidenceDescriptionUpdated",
      "type": "event"
    },
    {
      "anonymous": false,
      "inputs": [
        {
          "indexed": true,
          "name": "custodianAddress",
          "type": "address"
        },
        {
          "indexed": false,
          "name": "name",
          "type": "string"
        }
      ],
      "name": "CustodianCreated",
      "type": "event"
    },
    {
      "constant": false,
      "inputs": [
        {
          "name": "_custodianAddress",
          "type": "address"
        },
        {
          "name": "_name",
          "type": "string"
        }
      ],
      "name": "createCustodian",
      "outputs": [],
      "payable": false,
      "stateMutability": "nonpayable",
      "type": "function"
    },
    {
      "constant": false,
      "inputs": [
        {
          "name": "_description",
          "type": "string"
        },
        {
          "name": "_custodian",
          "type": "address"
        }
      ],
      "name": "initializeEvidence",
      "outputs": [
        {
          "name": "",
          "type": "uint256"
        }
      ],
      "payable": false,
      "stateMutability": "nonpayable",
      "type": "function"
    },
    {
      "constant": false,
      "inputs": [
        {
          "name": "_evidenceId",
          "type": "uint256"
        },
        {
          "name": "_newCustodian",
          "type": "address"
        }
      ],
      "name": "transferCustody",
      "outputs": [],
      "payable": false,
      "stateMutability": "nonpayable",
      "type": "function"
    },
    {
      "constant": false,
      "inputs": [
        {
          "name": "_custodianAddress",
          "type": "address"
        }
      ],
      "name": "deactivateCustodian",
      "outputs": [],
      "payable": false,
      "stateMutability": "nonpayable",
      "type": "function"
    },
    {
      "constant": false,
      "inputs": [
        {
          "name": "_evidenceId",
          "type": "uint256"
        },
        {
          "name": "_newDescription",
          "type": "string"
        }
      ],
      "name": "updateDescription",
      "outputs": [],
      "payable": false,
      "stateMutability": "nonpayable",
      "type": "function"
    },
    {
      "constant": true,
      "inputs": [
        {
          "name": "_evidenceId",
          "type": "uint256"
        }
      ],
      "name": "getCurrentCustodian",
      "outputs": [
        {
          "name": "",
          "type": "address"
        }
      ],
      "payable": false,
      "stateMutability": "view",
      "type": "function"
    },
    {
      "constant": true,
      "inputs": [
        {
          "name": "_evidenceId",
          "type": "uint256"
        }
      ],
      "name": "getCustodyHistory",
      "outputs": [
        {
          "components": [
            {
              "name": "custodian",
              "type": "address"
            },
            {
              "name": "timestamp",
              "type": "uint256"
            }
          ],
          "name": "",
          "type": "tuple[]"
        }
      ],
      "payable": false,
      "stateMutability": "view",
      "type": "function"
    },
    {
      "constant": true,
      "inputs": [
        {
          "name": "_evidenceId",
          "type": "uint256"
        }
      ],
      "name": "getEvidenceDetails",
      "outputs": [
        {
          "name": "",
          "type": "uint256"
        },
        {
          "name": "",
          "type": "string"
        },
        {
          "name": "",
          "type": "address"
        },
        {
          "components": [
            {
              "name": "custodian",
              "type": "address"
            },
            {
              "name": "timestamp",
              "type": "uint256"
            }
          ],
          "name": "",
          "type": "tuple[]"
        }
      ],
      "payable": false,
      "stateMutability": "view",
      "type": "function"
    },
    {
      "constant": true,
      "inputs": [],
      "name": "getAllEvidenceDetails",
      "outputs": [
        {
          "name": "",
          "type": "uint256[]"
        },
        {
          "name": "",
          "type": "string[]"
        },
        {
          "name": "",
          "type": "address[]"
        }
      ],
      "payable": false,
      "stateMutability": "view",
      "type": "function"
    }
  ],
  "bytecode": "0x608060405234801561001057600080fd5b5061217f806100206000396000f3fe6080604052600436106100b4576000357c01000000000000000000000000000000000000000000000000000000009004806305d5f515146100b957806314dee4b3146100f657806329caec321461011f5780632e4546cd1461014a578063815fc9bb1461018a578063b2f73e60146101b3578063b67f52a4146101dc578063bf169de714610205578063cf816d6014610242578063d127600514610282578063d75af31e146102af578063ff0acf4d146102ec575b600080fd5b3480156100c557600080fd5b506100e060048036036100db91908101906117e5565b61032b565b6040516100ed9190611cd8565b60405180910390f35b34801561010257600080fd5b5061011d6004803603610118919081019061184a565b6103b3565b005b34801561012b57600080fd5b50610134610508565b6040516101419190611ed1565b60405180910390f35b34801561015657600080fd5b50610171600480360361016c91908101906117e5565b61050e565b6040516101819493929190611f3f565b60405180910390f35b34801561019657600080fd5b506101b160048036036101ac919081019061180e565b6105f6565b005b3480156101bf57600080fd5b506101da60048036036101d5919081019061173d565b610993565b005b3480156101e857600080fd5b5061020360048036036101fe9190810190611714565b610bb1565b005b34801561021157600080fd5b5061022c60048036036102279190810190611791565b610c9e565b6040516102399190611ed1565b60405180910390f35b34801561024e57600080fd5b50610269600480360361026491908101906117e5565b610f29565b6040516102799493929190611eec565b60405180910390f35b34801561028e57600080fd5b50610297611073565b6040516102a693929190611d53565b60405180910390f35b3480156102bb57600080fd5b506102d660048036036102d191908101906117e5565b6112cb565b6040516102e39190611d31565b60405180910390f35b3480156102f857600080fd5b50610313600480360361030e9190810190611714565b611452565b60405161032293929190611cf3565b60405180910390f35b60008160025481101515610374576040517f08c379a000000000000000000000000000000000000000000000000000000000815260040161036b90611eb1565b60405180910390fd5b6001600084815260200190815260200160002060020160009054906101000a900473ffffffffffffffffffffffffffffffffffffffff16915050919050565b81600254811015156103fa576040517f08c379a00000000000000000000000000000000000000000000000000000000081526004016103f190611eb1565b60405180910390fd5b6001600084815260200190815260200160002060020160009054906101000a900473ffffffffffffffffffffffffffffffffffffffff1673ffffffffffffffffffffffffffffffffffffffff163373ffffffffffffffffffffffffffffffffffffffff161415156104a0576040517f08c379a000000000000000000000000000000000000000000000000000000000815260040161049790611e31565b60405180910390fd5b816001600085815260200190815260200160002060010190805190602001906104ca929190611541565b50827fb990814ab13231bf2d1826edcdc4479177cc20d69c3589e1acff8789ede6ee4b836040516104fb9190611d9f565b60405180910390a2505050565b60025481565b6001602052806000526040600020600091509050806000015490806001018054600181600116156101000203166002900480601f0160208091040260200160405190810160405280929190818152602001828054600181600116156101000203166002900480156105c05780601f10610595576101008083540402835291602001916105c0565b820191906000526020600020905b8154815290600101906020018083116105a357829003601f168201915b5050505050908060020160009054906101000a900473ffffffffffffffffffffffffffffffffffffffff16908060030154905084565b816002548110151561063d576040517f08c379a000000000000000000000000000000000000000000000000000000000815260040161063490611eb1565b60405180910390fd5b6000803373ffffffffffffffffffffffffffffffffffffffff1673ffffffffffffffffffffffffffffffffffffffff16815260200190815260200160002060020160009054906101000a900460ff1615156106cd576040517f08c379a00000000000000000000000000000000000000000000000000000000081526004016106c490611e71565b60405180910390fd5b6001600084815260200190815260200160002060020160009054906101000a900473ffffffffffffffffffffffffffffffffffffffff1673ffffffffffffffffffffffffffffffffffffffff163373ffffffffffffffffffffffffffffffffffffffff16141515610773576040517f08c379a000000000000000000000000000000000000000000000000000000000815260040161076a90611e31565b60405180910390fd5b6000808373ffffffffffffffffffffffffffffffffffffffff1673ffffffffffffffffffffffffffffffffffffffff16815260200190815260200160002060020160009054906101000a900460ff161515610803576040517f08c379a00000000000000000000000000000000000000000000000000000000081526004016107fa90611df1565b60405180910390fd5b600060016000858152602001908152602001600020905060408051908101604052808260020160009054906101000a900473ffffffffffffffffffffffffffffffffffffffff1673ffffffffffffffffffffffffffffffffffffffff1681526020014281525081600401600083600301600081548092919060010191905055815260200190815260200160002060008201518160000160006101000a81548173ffffffffffffffffffffffffffffffffffffffff021916908373ffffffffffffffffffffffffffffffffffffffff16021790555060208201518160010155905050828160020160006101000a81548173ffffffffffffffffffffffffffffffffffffffff021916908373ffffffffffffffffffffffffffffffffffffffff1602179055508273ffffffffffffffffffffffffffffffffffffffff163373ffffffffffffffffffffffffffffffffffffffff16857f55f940726e9a2689d79bf3c29305c07b4df0134b15e5e06e78894b2d2fea3236426040516109859190611ed1565b60405180910390a450505050565b600073ffffffffffffffffffffffffffffffffffffffff166000808473ffffffffffffffffffffffffffffffffffffffff1673ffffffffffffffffffffffffffffffffffffffff16815260200190815260200160002060000160009054906101000a900473ffffffffffffffffffffffffffffffffffffffff1673ffffffffffffffffffffffffffffffffffffffff16141515610a65576040517f08c379a0000000000000000000000000000000000000000000000000000000008152600401610a5c90611e91565b60405180910390fd5b6060604051908101604052808373ffffffffffffffffffffffffffffffffffffffff168152602001828152602001600115158152506000808473ffffffffffffffffffffffffffffffffffffffff1673ffffffffffffffffffffffffffffffffffffffff16815260200190815260200160002060008201518160000160006101000a81548173ffffffffffffffffffffffffffffffffffffffff021916908373ffffffffffffffffffffffffffffffffffffffff1602179055506020820151816001019080519060200190610b3b9291906115c1565b5060408201518160020160006101000a81548160ff0219169083151502179055509050508173ffffffffffffffffffffffffffffffffffffffff167f93108de971d8959bbcb47f4f820524d7e6fff87256f609fc2b067efe46b2588182604051610ba59190611d9f565b60405180910390a25050565b6000808273ffffffffffffffffffffffffffffffffffffffff1673ffffffffffffffffffffffffffffffffffffffff16815260200190815260200160002060020160009054906101000a900460ff161515610c41576040517f08c379a0000000000000000000000000000000000000000000000000000000008152600401610c3890611e51565b60405180910390fd5b60008060008373ffffffffffffffffffffffffffffffffffffffff1673ffffffffffffffffffffffffffffffffffffffff16815260200190815260200160002060020160006101000a81548160ff02191690831515021790555050565b60008060003373ffffffffffffffffffffffffffffffffffffffff1673ffffffffffffffffffffffffffffffffffffffff16815260200190815260200160002060020160009054906101000a900460ff161515610d30576040517f08c379a0000000000000000000000000000000000000000000000000000000008152600401610d2790611e71565b60405180910390fd5b600073ffffffffffffffffffffffffffffffffffffffff168273ffffffffffffffffffffffffffffffffffffffff1614151515610da2576040517f08c379a0000000000000000000000000000000000000000000000000000000008152600401610d9990611e11565b60405180910390fd5b6000600260008154809291906001019190505590506080604051908101604052808281526020018581526020018473ffffffffffffffffffffffffffffffffffffffff168152602001600081525060016000838152602001908152602001600020600082015181600001556020820151816001019080519060200190610e299291906115c1565b5060408201518160020160006101000a81548173ffffffffffffffffffffffffffffffffffffffff021916908373ffffffffffffffffffffffffffffffffffffffff16021790555060608201518160030155905050807f7d6f207530627f1b5c2e8721ba058d8ae1637a7bf39aa1935abd08ad450586878585604051610eb0929190611dc1565b60405180910390a28273ffffffffffffffffffffffffffffffffffffffff16600073ffffffffffffffffffffffffffffffffffffffff16827f55f940726e9a2689d79bf3c29305c07b4df0134b15e5e06e78894b2d2fea323642604051610f179190611ed1565b60405180910390a48091505092915050565b60006060600060608460025481101515610f78576040517f08c379a0000000000000000000000000000000000000000000000000000000008152600401610f6f90611eb1565b60405180910390fd5b60006001600088815260200190815260200160002090508060000154816001018260020160009054906101000a900473ffffffffffffffffffffffffffffffffffffffff16610fc68a6112cb565b828054600181600116156101000203166002900480601f01602080910402602001604051908101604052809291908181526020018280546001816001161561010002031660029004801561105b5780601f106110305761010080835404028352916020019161105b565b820191906000526020600020905b81548152906001019060200180831161103e57829003601f168201915b50505050509250955095509550955050509193509193565b6060806060806002546040519080825280602002602001820160405280156110aa5781602001602082028038833980820191505090505b50905060606002546040519080825280602002602001820160405280156110e557816020015b60608152602001906001900390816110d05790505b509050606060025460405190808252806020026020018201604052801561111b5781602001602082028038833980820191505090505b50905060008090505b6002548110156112b9576001600082815260200190815260200160002060000154848281518110151561115357fe5b9060200190602002018181525050600160008281526020019081526020016000206001018054600181600116156101000203166002900480601f01602080910402602001604051908101604052809291908181526020018280546001816001161561010002031660029004801561120b5780601f106111e05761010080835404028352916020019161120b565b820191906000526020600020905b8154815290600101906020018083116111ee57829003601f168201915b5050505050838281518110151561121e57fe5b906020019060200201819052506001600082815260200190815260200160002060020160009054906101000a900473ffffffffffffffffffffffffffffffffffffffff16828281518110151561127057fe5b9060200190602002019073ffffffffffffffffffffffffffffffffffffffff16908173ffffffffffffffffffffffffffffffffffffffff16815250508080600101915050611124565b50828282955095509550505050909192565b60608160025481101515611314576040517f08c379a000000000000000000000000000000000000000000000000000000000815260040161130b90611eb1565b60405180910390fd5b6060600160008581526020019081526020016000206003015460405190808252806020026020018201604052801561136657816020015b611353611641565b81526020019060019003908161134b5790505b50905060008090505b6001600086815260200190815260200160002060030154811015611447576001600086815260200190815260200160002060040160008281526020019081526020016000206040805190810160405290816000820160009054906101000a900473ffffffffffffffffffffffffffffffffffffffff1673ffffffffffffffffffffffffffffffffffffffff1673ffffffffffffffffffffffffffffffffffffffff168152602001600182015481525050828281518110151561142d57fe5b90602001906020020181905250808060010191505061136f565b508092505050919050565b60006020528060005260406000206000915090508060000160009054906101000a900473ffffffffffffffffffffffffffffffffffffffff1690806001018054600181600116156101000203166002900480601f0160208091040260200160405190810160405280929190818152602001828054600181600116156101000203166002900480156115245780601f106114f957610100808354040283529160200191611524565b820191906000526020600020905b81548152906001019060200180831161150757829003601f168201915b5050505050908060020160009054906101000a900460ff16905083565b828054600181600116156101000203166002900490600052602060002090601f016020900481019282601f1061158257805160ff19168380011785556115b0565b828001600101855582156115b0579182015b828111156115af578251825591602001919060010190611594565b5b5090506115bd9190611671565b5090565b828054600181600116156101000203166002900490600052602060002090601f016020900481019282601f1061160257805160ff1916838001178555611630565b82800160010185558215611630579182015b8281111561162f578251825591602001919060010190611614565b5b50905061163d9190611671565b5090565b6040805190810160405280600073ffffffffffffffffffffffffffffffffffffffff168152602001600081525090565b61169391905b8082111561168f576000816000905550600101611677565b5090565b90565b60006116a282356120d6565b905092915050565b600082601f83011215156116bd57600080fd5b81356116d06116cb82611fb8565b611f8b565b915080825260208301602083018583830111156116ec57600080fd5b6116f78382846120f2565b50505092915050565b600061170c82356120e8565b905092915050565b60006020828403121561172657600080fd5b600061173484828501611696565b91505092915050565b6000806040838503121561175057600080fd5b600061175e85828601611696565b925050602083013567ffffffffffffffff81111561177b57600080fd5b611787858286016116aa565b9150509250929050565b600080604083850312156117a457600080fd5b600083013567ffffffffffffffff8111156117be57600080fd5b6117ca858286016116aa565b92505060206117db85828601611696565b9150509250929050565b6000602082840312156117f757600080fd5b600061180584828501611700565b91505092915050565b6000806040838503121561182157600080fd5b600061182f85828601611700565b925050602061184085828601611696565b9150509250929050565b6000806040838503121561185d57600080fd5b600061186b85828601611700565b925050602083013567ffffffffffffffff81111561188857600080fd5b611894858286016116aa565b9150509250929050565b6118a78161208e565b82525050565b60006118b882612018565b8084526020840193506118ca83611fe4565b60005b828110156118fc576118e086835161189e565b6118e98261205a565b91506020860195506001810190506118cd565b50849250505092915050565b600061191382612023565b8084526020840193508360208202850161192c85611ff1565b60005b84811015611965578383038852611947838351611a71565b925061195282612067565b915060208801975060018101905061192f565b508196508694505050505092915050565b60006119818261202e565b80845260208401935061199383611ffe565b60005b828110156119c5576119a9868351611c9a565b6119b282612074565b9150604086019550600181019050611996565b50849250505092915050565b60006119dc82612039565b8084526020840193506119ee8361200b565b60005b82811015611a2057611a04868351611cc9565b611a0d82612081565b91506020860195506001810190506119f1565b50849250505092915050565b611a35816120a0565b82525050565b6000611a468261204f565b808452611a5a816020860160208601612101565b611a6381612134565b602085010191505092915050565b6000611a7c82612044565b808452611a90816020860160208601612101565b611a9981612134565b602085010191505092915050565b6000602782527f43616e206f6e6c79207472616e7366657220746f20616374697665206375737460208301527f6f6469616e732e000000000000000000000000000000000000000000000000006040830152606082019050919050565b6000602082527f437573746f6469616e20616464726573732063616e6e6f74206265207a65726f6020830152604082019050919050565b6000603382527f4f6e6c79207468652063757272656e7420637573746f6469616e2063616e207060208301527f6572666f726d207468697320616374696f6e2e000000000000000000000000006040830152606082019050919050565b6000601882527f437573746f6469616e206973206e6f74206163746976652e00000000000000006020830152604082019050919050565b6000602f82527f4f6e6c792061637469766520637573746f6469616e732063616e20706572666f60208301527f726d207468697320616374696f6e2e00000000000000000000000000000000006040830152606082019050919050565b6000601982527f437573746f6469616e20616c7265616479206578697374732e000000000000006020830152604082019050919050565b6000601882527f45766964656e636520646f6573206e6f742065786973742e00000000000000006020830152604082019050919050565b604082016000820151611cb0600085018261189e565b506020820151611cc36020850182611cc9565b50505050565b611cd2816120cc565b82525050565b6000602082019050611ced600083018461189e565b92915050565b6000606082019050611d08600083018661189e565b8181036020830152611d1a8185611a71565b9050611d296040830184611a2c565b949350505050565b60006020820190508181036000830152611d4b8184611976565b905092915050565b60006060820190508181036000830152611d6d81866119d1565b90508181036020830152611d818185611908565b90508181036040830152611d9581846118ad565b9050949350505050565b60006020820190508181036000830152611db98184611a3b565b905092915050565b60006040820190508181036000830152611ddb8185611a3b565b9050611dea602083018461189e565b9392505050565b60006020820190508181036000830152611e0a81611aa7565b9050919050565b60006020820190508181036000830152611e2a81611b04565b9050919050565b60006020820190508181036000830152611e4a81611b3b565b9050919050565b60006020820190508181036000830152611e6a81611b98565b9050919050565b60006020820190508181036000830152611e8a81611bcf565b9050919050565b60006020820190508181036000830152611eaa81611c2c565b9050919050565b60006020820190508181036000830152611eca81611c63565b9050919050565b6000602082019050611ee66000830184611cc9565b92915050565b6000608082019050611f016000830187611cc9565b8181036020830152611f138186611a3b565b9050611f22604083018561189e565b8181036060830152611f348184611976565b905095945050505050565b6000608082019050611f546000830187611cc9565b8181036020830152611f668186611a71565b9050611f75604083018561189e565b611f826060830184611cc9565b95945050505050565b6000604051905081810181811067ffffffffffffffff82111715611fae57600080fd5b8060405250919050565b600067ffffffffffffffff821115611fcf57600080fd5b601f19601f8301169050602081019050919050565b6000602082019050919050565b6000602082019050919050565b6000602082019050919050565b6000602082019050919050565b600081519050919050565b600081519050919050565b600081519050919050565b600081519050919050565b600081519050919050565b600081519050919050565b6000602082019050919050565b6000602082019050919050565b6000602082019050919050565b6000602082019050919050565b6000612099826120ac565b9050919050565b60008115159050919050565b600073ffffffffffffffffffffffffffffffffffffffff82169050919050565b6000819050919050565b60006120e1826120ac565b9050919050565b6000819050919050565b82818337600083830152505050565b60005b8381101561211f578082015181840152602081019050612104565b8381111561212e576000848401525b50505050565b6000601f19601f830116905091905056fea265627a7a7230582008eb895153374e30e005de3c5e703b730c426c1e1afe660d894e64c2bcd197576c6578706572696d656e74616cf50037",
  "source": "// SPDX-License-Identifier: MIT\npragma solidity >=0.4.22 <0.9.0;\n\npragma experimental ABIEncoderV2;\n\ncontract ChainOfCustody {\n    struct Evidence {\n        uint256 id;\n        string description;\n        address currentCustodian;\n        uint256 custodyRecordCount;\n        mapping(uint256 => CustodyRecord) custodyRecords;\n    }\n\n    struct CustodyRecord {\n        address custodian;\n        uint256 timestamp;\n    }\n\n    struct Custodian {\n        address addr;\n        string name;\n        bool isActive;\n    }\n\n    mapping(address => Custodian) public custodians;\n\n    mapping(uint256 => Evidence) public evidences;\n    uint256 public nextEvidenceId;\n\n    event CustodyTransferred(uint256 indexed evidenceId, address indexed from, address indexed to, uint256 timestamp);\n    event EvidenceInitialized(uint256 indexed evidenceId, string description, address initialCustodian);\n    event EvidenceDescriptionUpdated(uint256 indexed evidenceId, string newDescription);\n    event CustodianCreated(address indexed custodianAddress, string name);\n\n    modifier evidenceExists(uint256 _evidenceId) {\n        require(_evidenceId < nextEvidenceId, \"Evidence does not exist.\");\n        _;\n    }\n\n    modifier onlyActiveCustodian() {\n    require(custodians[msg.sender].isActive, \"Only active custodians can perform this action.\");\n    _;\n    }\n\n    function createCustodian(address _custodianAddress, string memory _name) public {\n        require(custodians[_custodianAddress].addr == address(0), \"Custodian already exists.\");\n        custodians[_custodianAddress] = Custodian(_custodianAddress, _name, true);\n        emit CustodianCreated(_custodianAddress, _name);\n    }\n\nfunction initializeEvidence(string memory _description, address _custodian) public onlyActiveCustodian returns (uint256) {\n    require(_custodian != address(0), \"Custodian address cannot be zero\");\n    uint256 evidenceId = nextEvidenceId++;\n    evidences[evidenceId] = Evidence(evidenceId, _description, _custodian, 0);\n    emit EvidenceInitialized(evidenceId, _description, _custodian);\n    emit CustodyTransferred(evidenceId, address(0), _custodian, block.timestamp);\n    return evidenceId;\n}\n\n    function transferCustody(uint256 _evidenceId, address _newCustodian) public evidenceExists(_evidenceId) onlyActiveCustodian {\n        require(msg.sender == evidences[_evidenceId].currentCustodian, \"Only the current custodian can perform this action.\");\n        require(custodians[_newCustodian].isActive, \"Can only transfer to active custodians.\");\n\n        Evidence storage evidence = evidences[_evidenceId];\n\n        evidence.custodyRecords[evidence.custodyRecordCount++] = CustodyRecord({\n            custodian: evidence.currentCustodian,\n            timestamp: block.timestamp\n        });\n\n        evidence.currentCustodian = _newCustodian;\n\n        emit CustodyTransferred(_evidenceId, msg.sender, _newCustodian, block.timestamp);\n    }\n\n    function deactivateCustodian(address _custodianAddress) public {\n        require(custodians[_custodianAddress].isActive, \"Custodian is not active.\");\n        custodians[_custodianAddress].isActive = false;\n    }\n\n    function updateDescription(uint256 _evidenceId, string memory _newDescription) public evidenceExists(_evidenceId) {\n        require(msg.sender == evidences[_evidenceId].currentCustodian, \"Only the current custodian can perform this action.\");\n        evidences[_evidenceId].description = _newDescription;\n        emit EvidenceDescriptionUpdated(_evidenceId, _newDescription);\n    }\n\n    function getCurrentCustodian(uint256 _evidenceId) public view evidenceExists(_evidenceId) returns (address) {\n        return evidences[_evidenceId].currentCustodian;\n    }\n\n    function getCustodyHistory(uint256 _evidenceId) public view evidenceExists(_evidenceId) returns (CustodyRecord[] memory) {\n        CustodyRecord[] memory history = new CustodyRecord[](evidences[_evidenceId].custodyRecordCount);\n        for (uint256 i = 0; i < evidences[_evidenceId].custodyRecordCount; i++) {\n            history[i] = evidences[_evidenceId].custodyRecords[i];\n        }\n        return history;\n    }\n\n    function getEvidenceDetails(uint256 _evidenceId) public view evidenceExists(_evidenceId) returns (uint256, string memory, address, CustodyRecord[] memory) {\n        Evidence storage evidence = evidences[_evidenceId];\n        return (evidence.id, evidence.description, evidence.currentCustodian, getCustodyHistory(_evidenceId));\n    }\n\n    function getAllEvidenceDetails() public view returns (uint256[] memory, string[] memory, address[] memory) {\n        uint256[] memory ids = new uint256[](nextEvidenceId);\n        string[] memory descriptions = new string[](nextEvidenceId);\n        address[] memory currentCustodians = new address[](nextEvidenceId);\n\n        for (uint256 i = 0; i < nextEvidenceId; i++) {\n            ids[i] = evidences[i].id;\n            descriptions[i] = evidences[i].description;\n            currentCustodians[i] = evidences[i].currentCustodian;\n        }\n\n        return (ids, descriptions, currentCustodians);\n    }\n}\n",
  "sourcePath": "/home/keta/Projects/blockchain/project_five/contracts/ChainOfCustody.sol",
  "compiler": {
    "name": "solc",
    "version": "0.5.1+commit.c8a2cb62.Emscripten.clang"
  },
  "schemaVersion": "3.4.16",
  "updatedAt": "2024-07-10T00:41:35.209Z",
  "devdoc": {
    "methods": {}
  },
  "userdoc": {
    "methods": {}
  }
}